:100000000C9434000C9451000C9451000C94510049
:100010000C9451000C9451000C9451000C9451001C
:100020000C9451000C9451000C9451000C9451000C
:100030000C9451000C9451000C9451000C945100FC
:100040000C9451000C9451000C9451000C945100EC
:100050000C9451000C9451000C9451000C945100DC
:100060000C9451000C94510011241FBECFEFD8E026
:10007000DEBFCDBF11E0A0E0B1E0E8EBF6E002C0EA
:1000800005900D92A831B107D9F721E0A8E1B1E0C0
:1000900001C01D92AC31B207E1F70E9476010C94C9
:1000A0005A030C94000087B1816087B9089588B124
:1000B000816088B980E58A95F1F788B18E7F88B92B
:1000C000089580E090E0DC0105C031990AC00196F6
:1000D000A11DB11D803C27E2920729E0A207B105CE
:1000E000A0F3803C9742A940B105C1F11092800075
:1000F00082E080938100109285001092840080E05D
:1001000090E0DC010CC0319B11C020918400309143
:10011000850021363A4E50F40196A11DB11D803C58
:1001200027E2920729E0A207B10568F3803C9742D5
:10013000A940B105B1F08091840090918500A0E0C4
:10014000B0E01092810081362AEE9207A105B10538
:1001500058F4B695A7959795879508958FEF9FEFDB
:1001600008958EEF9FEF08958EEF9FEF08959BB156
:100170009F70282F207F922B9BB99BB19E7F9BB9AC
:100180009BB192609BB935E03A95F1F700009BB1C5
:100190009D7F9BB9EFE1F3E03197F1F700C00000DC
:1001A0002BB1F0E18F9FC0011124922F9F70892BFA
:1001B0008BB98BB182608BB935E03A95F1F70000CD
:1001C0008BB18D7F8BB98FE39FE10197F1F700C071
:1001D000000008958FEF8AB98FE59AEE0197F1F745
:1001E00000C0000082E00E94B70088E20E94B700D1
:1001F0008CE00E94B70086E00E94B70081E00E9478
:10020000B7008FE39FE10197F1F700C00000089568
:1002100081E00E94B7008FE39FE10197F1F700C0F2
:10022000000080E80E94B7000895FC0160E070E0E3
:1002300034C08BB18F70907F982B9BB98BB181604C
:100240008BB98BB182608BB985E08A95F1F700009C
:100250008BB18D7F8BB98FE193E00197F1F700C0EF
:1002600000004BB19C9180E1989F90011124942F44
:100270009F70292B2BB99BB192609BB995E09A9501
:10028000F1F700009BB19D7F9BB98FE39FE1019740
:10029000F1F700C000006F5F7F4FDF01A60FB71FAF
:1002A0009C919111C6CF0895CF93DF9300D0CDB725
:1002B000DEB790E8998390EC9A83E62FF0E03197CF
:1002C00021E030E02C0F3D1FE20FF31F9081890FDA
:1002D00081500E94B7008FE891E00197F1F700C0CC
:1002E00000000F900F90DF91CF910895CF93DF938F
:1002F00000D000D0CDB7DEB70E94EA002FEF81EE2C
:1003000094E0215080409040E1F700C000000E943E
:10031000530087B18C6387B98AB184608AB90E941F
:1003200057000E9461008F3F2FEF920749F461E070
:1003300081E00E94540180E091E00E941501EFCF1E
:10034000BC0180E090E00E942A0226E933E44BE001
:100350005DE30E94900220E030E040E05FE30E9415
:1003600090020E94F40170931B0160931A01209186
:100370001801309119012617370711F00E94080162
:1003800061E081E00E94540187E091E00E94150144
:1003900061E08CE00E9454014AE0BE016F5F7F4F34
:1003A00080911A0190911B010E942503CE010196B4
:1003B0000E94150161E08EE00E94540183E191E00A
:1003C0000E94150180911A0190911B0190931901CF
:1003D000809318018FEF96E721E0815090402040F4
:1003E000E1F700C000009BCF0E94FB016894B111AF
:1003F0000C948A0208950E946F0288F09F5798F02B
:10040000B92F9927B751B0F0E1F0660F771F881F19
:10041000991F1AF0BA95C9F714C0B13091F00E9433
:100420008902B1E008950C948902672F782F8827FC
:10043000B85F39F0B93FCCF3869577956795B3955A
:10044000D9F73EF490958095709561957F4F8F4FC9
:100450009F4F0895E89409C097FB3EF490958095CE
:10046000709561957F4F8F4F9F4F9923A9F0F92F7A
:1004700096E9BB279395F695879577956795B795F8
:10048000F111F8CFFAF4BB0F11F460FF1BC06F5FDE
:100490007F4F8F4F9F4F16C0882311F096E911C0F0
:1004A000772321F09EE8872F762F05C0662371F011
:1004B00096E8862F70E060E02AF09A95660F771F25
:1004C000881FDAF7880F9695879597F9089557FD55
:1004D0009058440F551F59F05F3F71F04795880FB2
:1004E00097FB991F61F09F3F79F087950895121649
:1004F00013061406551FF2CF4695F1DF08C01616F5
:1005000017061806991FF1CF8695710561050894A5
:100510000895E894BB2766277727CB0197F90895BC
:100520000E94A3020C9414030E94060338F00E9458
:100530000D0320F0952311F00C94FD020C9403039D
:1005400011240C948A020E94670270F3959FC1F3F4
:10055000950F50E0551F629FF001729FBB27F00D71
:10056000B11D639FAA27F00DB11DAA1F649F6627C6
:10057000B00DA11D661F829F2227B00DA11D621F15
:10058000739FB00DA11D621F839FA00D611D221FCF
:10059000749F3327A00D611D231F849F600D211DB3
:1005A000822F762F6A2F11249F5750409AF0F1F036
:1005B00088234AF0EE0FFF1FBB1F661F771F881F9F
:1005C00091505040A9F79E3F510580F00C94FD02D8
:1005D0000C948A025F3FE4F3983ED4F386957795B6
:1005E0006795B795F795E7959F5FC1F7FE2B880F45
:1005F000911D9695879597F9089597F99F6780E8DB
:1006000070E060E008959FEF80EC089500240A9464
:100610001616170618060906089500240A941216DD
:100620001306140605060895092E0394000C11F410
:10063000882352F0BB0F40F4BF2B11F460FF04C0BD
:100640006F5F7F4F8F4F9F4F0895BB274A3031F424
:10065000992322F4BDE2909581959F4F0C9431032C
:10066000BB27FB015527AA27880F991FAA1FA4178C
:1006700010F0A41B83955051B9F7A05DAA3308F080
:10068000A95DA193009779F7B111B1931192CB01B4
:100690000C944A03DC01FC01672F71917723E1F789
:1006A000329704C07C916D9370836291AE17BF073F
:0806B000C8F30895F894FFCF90
:1006B8004572726F72210044697374616E636520BC
:0806C8003D200020636D0000DD
:00000001FF
